{
  "contractName": "CertificateVerification",
  "abi": [
    {
      "anonymous": false,
      "inputs": [
        {
          "indexed": true,
          "internalType": "bytes32",
          "name": "certificateHash",
          "type": "bytes32"
        },
        {
          "indexed": true,
          "internalType": "address",
          "name": "issuer",
          "type": "address"
        }
      ],
      "name": "CertificateIssued",
      "type": "event"
    },
    {
      "inputs": [
        {
          "internalType": "bytes32",
          "name": "",
          "type": "bytes32"
        }
      ],
      "name": "certificates",
      "outputs": [
        {
          "internalType": "bool",
          "name": "",
          "type": "bool"
        }
      ],
      "stateMutability": "view",
      "type": "function",
      "constant": true
    },
    {
      "inputs": [
        {
          "internalType": "bytes32",
          "name": "certificateHash",
          "type": "bytes32"
        }
      ],
      "name": "issueCertificate",
      "outputs": [],
      "stateMutability": "nonpayable",
      "type": "function"
    },
    {
      "inputs": [
        {
          "internalType": "bytes32",
          "name": "certificateHash",
          "type": "bytes32"
        }
      ],
      "name": "verifyCertificate",
      "outputs": [
        {
          "internalType": "bool",
          "name": "",
          "type": "bool"
        }
      ],
      "stateMutability": "view",
      "type": "function",
      "constant": true
    }
  ],
  "bytecode": "0x608060405234801561001057600080fd5b50610319806100206000396000f3fe608060405234801561001057600080fd5b50600436106100415760003560e01c8063742f068814610046578063850c176814610076578063a1f81824146100a6575b600080fd5b610060600480360381019061005b91906101f2565b6100c2565b60405161006d919061026a565b60405180910390f35b610090600480360381019061008b91906101f2565b6100e2565b60405161009d919061026a565b60405180910390f35b6100c060048036038101906100bb91906101f2565b61010b565b005b60006020528060005260406000206000915054906101000a900460ff1681565b600080600083815260200190815260200160002060009054906101000a900460ff169050919050565b60008082815260200190815260200160002060009054906101000a900460ff161561016b576040517f08c379a000000000000000000000000000000000000000000000000000000000815260040161016290610285565b60405180910390fd5b600160008083815260200190815260200160002060006101000a81548160ff0219169083151502179055503373ffffffffffffffffffffffffffffffffffffffff16817f11fb9f283c08b0122fe14bf3b5692d38f07282003f545f4bbc8b766ddcbda83260405160405180910390a350565b6000813590506101ec816102cc565b92915050565b60006020828403121561020457600080fd5b6000610212848285016101dd565b91505092915050565b610224816102b6565b82525050565b6000610237601a836102a5565b91507f436572746966696361746520616c7265616479206578697374730000000000006000830152602082019050919050565b600060208201905061027f600083018461021b565b92915050565b6000602082019050818103600083015261029e8161022a565b9050919050565b600082825260208201905092915050565b60008115159050919050565b6000819050919050565b6102d5816102c2565b81146102e057600080fd5b5056fea26469706673582212201111137a8232e9c5ea0a93f1b9f26443a73223571174df00ae2e44070cb8310564736f6c63430008000033",
  "immutableReferences": {},
  "source": "// SPDX-License-Identifier: MIT\r\npragma solidity ^0.8.0;\r\n\r\ncontract CertificateVerification {\r\n    // Mapping to store certificate hashes\r\n    mapping(bytes32 => bool) public certificates;\r\n\r\n    // Event to log certificate issuance\r\n    event CertificateIssued(bytes32 indexed certificateHash, address indexed issuer);\r\n\r\n    // Function to issue a certificate\r\n    function issueCertificate(bytes32 certificateHash) public {\r\n        require(!certificates[certificateHash], \"Certificate already exists\");\r\n        certificates[certificateHash] = true;\r\n        emit CertificateIssued(certificateHash, msg.sender);\r\n    }\r\n\r\n    // Function to verify a certificate\r\n    function verifyCertificate(bytes32 certificateHash) public view returns (bool) {\r\n        return certificates[certificateHash];\r\n    }\r\n}",
  "sourcePath": "C:\\Users\\ACHYUTH K\\certificate-verification\\contracts\\CertificateVerification.sol",
  "compiler": {
    "name": "solc",
    "version": "0.8.0+commit.c7dfd78e.Emscripten.clang"
  },
  "schemaVersion": "3.4.16",
  "updatedAt": "2025-04-20T18:25:39.473Z",
  "networkType": "ethereum",
  "devdoc": {
    "kind": "dev",
    "methods": {},
    "version": 1
  },
  "userdoc": {
    "kind": "user",
    "methods": {},
    "version": 1
  }
}